:020000040800F2
:1000000000180020690B0008C1070008C507000898
:1000100000000000000000000000000000000000E0
:10002000000000000000000000000000C9070008F8
:100030000000000000000000CD070008D107000804
:10004000650B0008650B0008650B0008650B0008D0
:10005000650B0008650B0008650B0008650B0008C0
:10006000650B0008650B0008650B0008650B0008B0
:10007000650B0008650B0008650B0008650B0008A0
:10008000650B00080000000000000000D907000810
:1000900000000000650B0008650B0008650B0008F8
:1000A00000000000650B0008650B0008650B0008E8
:1000B000650B000800000000650B0008E907000858
:1000C00010B5064C2378002B07D1054B002B02D02E
:1000D000044800E000BF0123237010BD3801002058
:1000E00000000000F03C0008044B10B5002B03D0CA
:1000F0000349044800E000BF10BDC04600000000F6
:100100003C010020F03C0008002243088B4274D3DD
:1001100003098B425FD3030A8B4244D3030B8B4208
:1001200028D3030C8B420DD3FF22090212BA030C11
:100130008B4202D31212090265D0030B8B4219D3F2
:1001400000E0090AC30B8B4201D3CB03C01A524112
:10015000830B8B4201D38B03C01A5241430B8B425A
:1001600001D34B03C01A5241030B8B4201D30B0343
:10017000C01A5241C30A8B4201D3CB02C01A52416A
:10018000830A8B4201D38B02C01A5241430A8B422D
:1001900001D34B02C01A5241030A8B4201D30B0216
:1001A000C01A5241CDD2C3098B4201D3CB01C01A30
:1001B000524183098B4201D38B01C01A524143093A
:1001C0008B4201D34B01C01A524103098B4201D328
:1001D0000B01C01A5241C3088B4201D3CB00C01A95
:1001E000524183088B4201D38B00C01A524143080D
:1001F0008B4201D34B00C01A5241411A00D2014632
:10020000524110467047FFE701B5002000F006F8A4
:1002100002BDC0460029F7D076E770477047C04658
:1002200022230380004870470000002070B51C4C5A
:100230001C4D1D4B002220001C492B63AB62EB625E
:1002400003F0A6F8002811D12900200003F0BAF825
:10025000002813D12000164903F090F8002815D18A
:10026000200003F0B9F8002817D170BD00F078FC29
:100270002900200003F0A6F80028EBD000F070FC65
:1002800020000B4903F07AF80028E9D000F068FC60
:10029000200003F0A1F80028E7D000F061FCE4E7BB
:1002A00054010020BC00002021020008240000208E
:1002B000A800002000B50D4B026883B09A4201D01F
:1002C00003B000BD80200A4A0004D1690143D16116
:1002D000D36900210340019300221F20019B00F0FD
:1002E00095FC1F2000F0C4FCEAE7C046005C00401B
:1002F000001002400100872310B59B00ED31C0586B
:10030000FF3103F085F810BDCB005B1A9B00C318CA
:100310001933FF331A68872310B59B00C05803F0C8
:10032000ABF810BDCB005B1A9B00C3189A6B8723F8
:1003300010B59B00C05803F0DBF810BD872310B543
:100340009B00C05803F06EF910BDC046836870B5BD
:100350000400022B01D000F003FC8725AD00012131
:10036000605903F047F9605903F020F970BDC046A9
:10037000872310B504009B00C05803F03FF9A36920
:10038000002B04D00621024A13690B43136110BDF0
:1003900000ED00E0836910B50400002B05D1872330
:1003A0009B00E05803F036F910BD0621034A13699B
:1003B0008B43136100F0A0FAF1E7C04600ED00E0C6
:1003C000872370B504001A489B00C4500433E050E2
:1003D000184B0022036008234360063B83600361DF
:1003E00000238261C3610023036200F043FD002803
:1003F0001BD18825AD00605918230022002101F08F
:1004000001FF605958230022802101F0FBFE605952
:1004100098230022812101F0F5FE6059D8230022A3
:10042000012101F0EFFE002070BD00F099FBE0E734
:1004300078030020005C004088239B00C05810B562
:1004400000F024FE03000220032B01D8014AD05CF7
:1004500010BDC046B43B000810B514001A00882334
:100460009B00C058230000F035FE03000220032B40
:1004700001D8014AD05C10BDB43B000888239B0022
:10048000C05810B500F02EFF03000220032B01D846
:10049000014AD05C10BDC046B43B000888239B00D5
:1004A000C05810B501F0ECFD03000220032B01D869
:1004B000014AD05C10BDC046B43B000888239B00B5
:1004C000C05810B501F03AFE03000220032B01D8FA
:1004D000014AD05C10BDC046B43B000888234AB234
:1004E0009B00C358002A07DBCA00511A89005B1819
:1004F0000B33FF33187870477F221140CA00511A1E
:1005000089005B182A331878F5E7C04688239B00DA
:10051000C05810B500F0C4FD03000220032B01D821
:10052000014AD05C10BDC046B43B000810B5882419
:10053000A400005900F0DCFF03000220032B01D8C7
:10054000014AD05C10BDC046B43B000810B58824F9
:10055000A400005900F026FF03000220032B01D85D
:10056000014AD05C10BDC046B43B0008004870474B
:10057000980500207047C046122301480B80704741
:1005800040000020042301480B80704754000020E5
:1005900010B5044C0A002100034803F065FA20005E
:1005A00010BDC046B4050020B83B000810B5044C8F
:1005B0000A002100034803F057FA200010BDC0468E
:1005C000B4050020CC3B000810B5044C0A00210003
:1005D000034803F049FA200010BDC046B4050020CE
:1005E000E43B000810B5044C0A002100034803F066
:1005F0003BFA200010BDC046B4050020F83B0008BF
:100600001A230B80624B1A68624B1B68D318002BAD
:1006100001D161487047614A5F481268190F092982
:100620005BD9373181700021C1701901090F092987
:100630005BD937310171002141711902090F092974
:100640005BD9373181710021C1711903090F092963
:100650005BD937310172002141721904090F092950
:100660005BD9373181720021C1721905090F09293F
:100670005BD937310173002141731906090F09292C
:100680005BD9373181730021C1730F310B40092BC6
:100690005BD83033037400234374130F092B5BD9E9
:1006A000373383740023C37413011B0F092B5BD9E9
:1006B000373303750023437513021B0F092B5BD9D6
:1006C0003733837500231203C375120F092A5BD8D1
:1006D00030320276002343769CE73031817000216E
:1006E000C1701901090F0929A3D830310171002106
:1006F00041711902090F0929A3D8303181710021F4
:10070000C1711903090F0929A3D8303101720021E1
:1007100041721904090F0929A3D8303181720021CF
:10072000C1721905090F0929A3D8303101730021BD
:1007300041731906090F0929A3D8303181730021AB
:10074000C1730F310B40092BA3D937330374002336
:100750004374130F092BA3D8303383740023C3745D
:1007600013011B0F092BA3D83033037500234375E6
:1007700013021B0F092BA3D83033837500231203F8
:10078000C375120F092AA3D937320276A2E7C046F1
:10079000ACF7FF1FB4F7FF1F58000020B0F7FF1F92
:1007A000002070470020704700207047010010B5FE
:1007B0000322024802F0CCFD40B210BD54010020DB
:1007C0007047C046FEE7C0467047C0467047C04607
:1007D00010B500F00DFA10BD10B5024802F0D2FBC2
:1007E00010BDC046B807002010B5024800F0B8FFA1
:1007F00010BDC0467803002001220C4B82B09969DD
:100800001143996199690A4080210092009ADA693E
:1008100049050A43DA61DB69054A0B40102101935F
:10082000019B13680B43136002B070470010024035
:10083000000001408023026882B0DB059A4201D0AB
:1008400002B070470123044AD1691943D161D269CA
:1008500013400193019BF3E70010024000B50D4BDC
:10086000026883B09A4201D003B000BD80200A4ADA
:100870004000D1690143D161D36900210340019354
:100880000022ED38019B00F0C1F9132000F0F0F9CF
:10089000EAE7C046002000400010024010B5040006
:1008A00088B01422002102A803F07BF9802322687B
:1008B000DB059A4201D008B010BD80200A4A8002B0
:1008C0005169014351615369022203400193019B25
:1008D0000223902002920393022302A9C0050693EB
:1008E00000F0EAF9E7E7C046001002400122014BA0
:1008F0001A607047B407002000B5A1B03022002173
:1009000014A803F04EF91022002102A803F049F9BF
:10091000182200210DA803F044F91822002106A88E
:1009200003F03FF9202313A813931F3B1B9301F0FF
:1009300087FC072203230292039300220023012154
:1009400002A80492059301F053FF80239B020D93AC
:1009500000230DA8129302F017F880200D4A00051D
:10096000D1690143D161D369002203400193019B06
:1009700080239B05069207930022074B06A8089246
:100980000993222220230A920B9302F0ADF821B0A2
:1009900000BDC046001002407FBB0000F0B5DE463F
:1009A000454657464E46E0B58DB000F011F9FFF7C9
:1009B000A3FF1022002105A803F0F3F880205F4B6D
:1009C000C002596904AD0143596180215A69890205
:1009D00002400092009A5A6900270A435A615B69F3
:1009E0000B400193019BFC235B0004939A46F83B68
:1009F000FF3BAB60524B290018009B4600F05CF9AE
:100A00000822002102A803F0CCF81C2200212800B3
:100A100003F0C7F880234B4EDB0533609846E02394
:100A2000FF337360484B30009946B760F36037611D
:100A3000B76102F0F5F800220023300002A902920B
:100A4000039302F04BFBFA2360225B0004920593B0
:100A500029005C3A3000AF602F6102F06BF9300082
:100A6000FFF71CFF394C3A4B20002360394BA7603D
:100A7000636063232761E360A76102F061F8FFF719
:100A8000D5FB5B461F695346042130001F4002F02E
:100A90002DF9200002F0BAF800234C462E4E99465C
:100AA00030E04346503C9C630B691800104087427D
:100AB0002BD00700012219098A43D90501D402214C
:100AC0000A432A708122590606D5013A1A4051423A
:100AD0004A417F2152420A406A708122190706D595
:100AE000613A13405A4253417F225B421A40280028
:100AF000AA70FFF75BFE194B9C4218DCFA34230006
:100B000042469363FC220E4952003368002BFCD00E
:100B10004B463360502CC4DC4346484698630B690F
:100B200018001040B84206D007000024C2E7FA249B
:100B3000A4002300E4E70024E7E7C04600100240D9
:100B400000040048F8070020E7030000B807002071
:100B500000200040BF120000B4070020ED0200009A
:100B60007047C046FEE7C0460B480C4A904203D08F
:100B70000B49121A03F00CF80A480B4A904203D0B2
:100B80000021121A03F00DF802F0CEFA02F0DCFF99
:100B9000FFF704FFFEE7C0460000002038010020F8
:100BA000F83C0008380100204008002010B504007F
:100BB00001F0E4FEFA218900FFF7A6FA00F062F8DE
:100BC000012000222100404200F020F8002010BD4A
:100BD0001021064A10B5136800200B431360FFF77D
:100BE000E5FFFFF709FE002010BDC04600200240CF
:100BF000024A1368013313607047C046380800206A
:100C0000014B18687047C0463808002070B50028AE
:100C100014DB154B03229C46FF23840810401A0066
:100C2000C026C000890182400B408340A400644478
:100C3000B600A55995432B43A35170BD0B4A03241D
:100C400094460F23FF22034020401400C000890176
:100C500084400A408240083B9B089B006344DD6956
:100C6000A5432A43DA61E8E700E100E000ED00E097
:100C70001F2318401E3B8340014A13607047C04643
:100C800000E100E08022431E5204012093420ED274
:100C9000C021074A07485360036A09061B021B0A62
:100CA0000B430362002300209360073313607047F7
:100CB00010E000E000ED00E0F0B54546DE465746A6
:100CC0004E46E0B50D68002385B0002D00D1B8E098
:100CD00001229346624AAA469146884665E0032669
:100CE0005D00AE40B44661460768F6438F43390065
:100CF00003271740AF40BC460F0061460F430199E0
:100D00000760013901297CD9C1680E4041468968D4
:100D1000A9400E4380214905C6600A4241D0494698
:100D20005C468969032521434C46A161A1695C4663
:100D30000F2621404B4C1D40A446AD00AE40039110
:100D400003999908890061448C68B4439026F6059C
:100D5000B0420AD0444EB04200D179E0434EB04296
:100D600000D179E00526AE4034438C604049009CB8
:100D70000968E443D50361D421403D4D2960696889
:100D8000950358D421403A4D6960A968D5024FD4E3
:100D90002140374DA960E968920245D42140344A88
:100DA000D16052460133DA404BD05C4652469C40FB
:100DB0002240009252462242F3D042465268102509
:100DC0001100A9430191022989D10F27093D1D4036
:100DD000AD00AF40D908890041180E6ABE434746AE
:100DE0003F69AF403E430E6201685D008C460321BF
:100DF0006746A9408F43CE4303211140A9403943A0
:100E00000160816831408C464146C9686746A94007
:100E100039435F4681604168A1430C0011093940A4
:100E20009940214341606FE7009A0A431100B6E7F9
:100E3000009D2943ADE7009D2943A4E7009D294378
:100E40009BE705B0F0BCBB46B246A946A046F0BD44
:100E50005E46AE40344388E70226AE40344384E722
:100E60000010024000000140000400480008004853
:100E70000004014070B5041E00D1FCE0EA23FF33FA
:100E8000C35CDAB2002B00D1EFE0EA230322FF3388
:100E9000E2546268002A00D1D2E0802100232B2096
:100EA0004900218523546363A363E363012A00D1CE
:100EB000E3E002251930FF35255203302354236522
:100EC0006365A365022A4AD01930013525520330E3
:100ED0002354E36623676367032A40D0042519304F
:100EE000FF3525520330235409302350043023505A
:100EF00004302350042A32D0083001352552033003
:100F00002354093023500430235004302350052A41
:100F100025D006250830FF352552033023540930EB
:100F200023500430235004302350062A17D00830B1
:100F30000135255203302354093023500430235007
:100F400004302350072A0AD008250830FF352552DF
:100F5000033023540930235004302350635084203D
:100F60000023400023520C2000210125FF30215492
:100F700009302350043023500430235008302552C8
:100F80002820FF30215409302350043023500430EE
:100F90002350022A54D0A02002254000255244208C
:100FA000FF302154093023500430235004302350A3
:100FB000032A45D00830013525526020FF302154E6
:100FC000093023500430235004302350042A37D0F2
:100FD0000830013525527C20FF3021540930235040
:100FE0000430235004302350052A29D0083001351D
:100FF00025529820FF3021540930235004302350CB
:1010000004302350062A1BD0083001352552B42065
:10101000FF30215409302350043023500430235032
:10102000072A0DD0E622BE385200FF38A052D02247
:10103000FF32A1540932A3500432A3500432A3500A
:1010400040220121236844209952002199521952CB
:101050000C3019520C490020995200222423E254EA
:10106000EA230122FF33E25470BDE933FF33C25457
:10107000FFF720F909E70120F6E784225200A35286
:1010800000210C22D4E7C04600BFFFFF58220168B0
:1010900080208B5A000203438B5200207047C046C9
:1010A000F4235B00C25C012A11D00122C254002942
:1010B00007D02423C154F42300225B00C254002033
:1010C000704701689D3BFF3B7F32CA52F3E7022025
:1010D000F6E7C046F0B55746DE464E464546E0B513
:1010E0004FB29446002F00DA88E0CA009046541AA6
:1010F000A4000934FF340419FA0F62706246E260FA
:10110000F4222170E3705200855C012D00D1C8E00B
:1011100001258554022B00D1AFE048D8002B00D127
:10112000B4E003688A009D5A5F4E2E405F4D354300
:101130009D529D5A9E185E4A154029435D4D0D43B0
:101140003580A57A002D3DD05B4D29405B4D29436C
:10115000802531805021ED00A9468C46595A4144E2
:10116000591849448A46E188894601218B464946F7
:101170005D46A943554629806146595A43445B1848
:101180004F498C4621895C466344A14319803388CA
:101190001340484A1A433280F42300225B00C254B1
:1011A0000020F0BCBB46B246A946A046F0BD8A006E
:1011B000032B74D103683C4E9D5A2E40414D35435C
:1011C0009D52B6E7002F22DA5021595A43445B184A
:1011D0008021C9008C46A18801246344A143198061
:1011E0003388590602D51340374A1343374A134010
:1011F000202253402F4A13433380CDE77F221140F2
:10120000CA00541AA40028349046041974E75025E3
:101210002B495A5B8946A188012442449A184A44C2
:10122000A14311805A5B2A49424488464344D3185B
:1012300062463E2A16D8614652080C4200D001325E
:1012400092021A8033885A0403D5194A1340214A5E
:101250001343214A1340C02292015A40154B1343B5
:10126000338099E761465209C90601D1013A92B229
:101270001A4992020A431A80E4E703688A009D5AD9
:10128000094E2E400B4D35439D5252E703688A00AC
:101290009D5A054E2E40124D35439D5249E7036835
:1012A00047E702207DE7C0460F0900008084FFFF6A
:1012B0000F0F00008080FFFF0F0E00008081FFFFF6
:1012C000040400008086FFFFC0800000BF8FFFFF86
:1012D0000604000080C000008FBFFFFF0080FFFFFA
:1012E0008082FFFF4AB230B5002A32DBCB005B1AA6
:1012F0009B000933FF33C318D40F5C70F4241970BA
:101300006400055D012D33D0012505559B7A8900C8
:10131000002B0DD003681D4A5C185B5A13401C4A11
:1013200013432380F42300225B00C254002030BD0D
:1013300003685C185B5A002A1CDA5A0603D5134A64
:101340001340144A1343144A1340114A1343238091
:10135000E8E77F231940CB005B1A9B002833C318B2
:10136000D40F5C70F42419706400055D012DCBD19D
:101370000220DCE75A0403D5044A1340074A13430A
:10138000074A1340024A13432380CBE70F0F0000A4
:101390008080FFFFC0800000BF8FFFFF80C0000083
:1013A0008FBFFFFFF0B57F242140CD006C1AA40051
:1013B000041926001936FF3632600022B2600F3E53
:1013C000327022000932FF321534FF341170226866
:1013D00000249A4201D29C1A13006A1A92008218C1
:1013E00016001D36FF3613323460FF321278002AA1
:1013F00022D150240268394E145B96192C19A41975
:101400003E2B4ED95E09B6B2DB0660D0344BB60235
:101410001E432680691A890041180931FF310B7873
:1014200030499B00D05A0840C021890148402E49CC
:101430000143D1520020F0BD502402682B4E145BB2
:1014400096192C19A4193E2B09D95E09B6B2DF06EC
:1014500001D1013EB6B2224FB6023E4304E05E081F
:10146000B6B2DF0736D4B602B6B226806C1AA40034
:10147000041927000A37FF373F78002F1AD0012FB1
:10148000C8D150246E1AB60086190936FF36175B8C
:101490003478124EE400B4461419E41964442380ED
:1014A000B8E75E08B6B2DB0701D50136B6B2B602C0
:1014B0002680AFE750230934FF34D75A2378074CEE
:1014C000DB00A446D318DB1963441E80A2E7013E6B
:1014D000B6B29BE70136B6B2C5E7C04606040000C7
:1014E0000080FFFF8FBFFFFF8080FFFF020400002E
:1014F000F0B557464E464546DE467F24E0B52140CE
:10150000160083B0CA00551A01920022AD00451999
:101510002A642A0001272932AE63013A57701170FC
:101520006A6B00259A4201D29D1A1300019A571A3C
:10153000BF00C7193A00FD6332321278002A65D124
:101540009CB21B041B0C0133A4465C08A0468024FB
:101550000268E40015194446BF8D7D19002C2ED079
:10156000F743B9460227A9444F45BF417C42A146F3
:10157000340003272C4327403C00674267414C4618
:10158000274200D1CFE04446671E0B2F00D8CAE0A7
:101590009B089A469B009946AB462B00CB44771B91
:1015A000DC5910C39B45FBD153464E445F004D446C
:1015B000B84504D0737837781B023B432B80502307
:1015C000604CD75AA0466446019B5E1AB600861945
:1015D00028363378DB00DB19D31843441C80019B89
:1015E0005C1AA40000192830017857488900535A22
:1015F000034030204340554803430020535203B07A
:10160000F0BCBB46B246A946A046F0BD02688D00BC
:10161000AD5A6C065FD45025019C565B1519494C98
:10162000AD19A44665442B80FF8D1B04019C1B0C47
:101630000133651A5C08A4468024AD004519E40016
:10164000AE6B15196446EF19002C31D0F543A8464E
:101650000225B8444545AD416C42A24634003C43A6
:10166000A1460324A0464C4645462C4025006C422A
:101670006C4155462C4247D06446651E0B2D43D91C
:101680009B0899469B009846BA463D00C244F31B0E
:10169000EC5810C55545FBD14B4635005B00454421
:1016A0004744634504D06B782E781B0233433B805C
:1016B000019B5B1A9B00C3181D0029352D78002D56
:1016C00015D128331B78224E9B00D55A2E40214D30
:1016D0003543D55283E7019C5025A446555B1E4CEB
:1016E0006544A446AD1865442B803F8E9DE7012DCF
:1016F00000D074E728331B78154E9B00D55A2E4036
:10170000164D3543D5526AE763465B009C4633006D
:10171000B444BF1B5D781E782D023543DD53023380
:101720009C45F7D1C4E743465B0098463300B0447C
:10173000AF1B5E781D7836022E43DE530233984588
:10174000F7D13CE702040000BF8FFFFF8080FFFF5E
:101750000F0F0000C080FFFF0604000080C0FFFFE5
:10176000F0B5DE4657464E46454603680400442021
:10177000E0B5195A1A0009B287B0002900DA6CE006
:101780004421585A40054BD44423D15A490403D527
:10179000D15AB6480140D1524423D15A890403D5C5
:1017A000D15AB3480140D1524425535BDB0427D4BE
:1017B0004423D15A090510D5D15AAE480825014015
:1017C000D1524021505A28435052505A043D284388
:1017D0005052D35ADB0400D4DEE14423D15A8905A8
:1017E00032D44423D15AC90503D5D15AA248014065
:1017F000D15207B0F0BCBB46B246A946A046F0BDE8
:1018000040230420D15A8143D1529C492000D15217
:10181000FEF7C0FD22689A49535B0B405353C7E75C
:101820005A5A984802405A522000FEF78FFDF4237E
:101830005B00E25C012A00D162E34C218020226837
:1018400050520021E1549FE7D15A8F480140D152B4
:101850002000FEF773FD2268C3E7002104ADE98094
:10186000195A89B2A98009B2002900DB88E70F2242
:1018700091464D464946854A121B009204AA928819
:101880001540114221D104AA9288D20600D40BE15E
:10189000198804AAD180D288120500D5F0E204AAE2
:1018A000D28812B2002A58DB1A004421595A04A8DF
:1018B00089B2818009B2002900DB61E74D464946C3
:1018C00004AA928815401142DDD0AE00995B04AAAB
:1018D000D180D288981912B2002A00DA74E004AAE2
:1018E000D2881206E0D59A5B69490A40E9009A530A
:1018F0004E1BB600A619320032321278002A00D0F0
:1019000000E150329A5A9446624A981832002832BE
:101910001278D2006244125A9205920D326400D0BD
:10192000F9E150224D1BAD0065199A5A2B0028335E
:101930001978CB009B181A5AAB6B92059C46920DF6
:10194000EB6B2A6462442000AA63002B00D0D5E030
:10195000FEF7E8FC23681A00A7E74F4A250011406C
:10196000502219804D49985A8C46B832A25C0935EC
:10197000D20012189A1862441688FF35B205920DEB
:10198000AA6100D050E200212000FEF7BDFC5021EA
:1019900023684248595A18184118E8681A003E2826
:1019A00000D9A3E14508ADB2C00701D50135ADB2FC
:1019B000AD020D8018883A490840C021890148408D
:1019C00038490143198070E7334A11400180E9002A
:1019D0004A1B9200A21810001330FF300078002834
:1019E00000D0B3E05030185A2C4F84461000093014
:1019F000FF300078C0006044BC461818604400887E
:101A00008046800584466746800D82460020002F70
:101A100000D0CBE19022520094464B1B9B00E31870
:101A20009C4462466746126812183A601A001932DE
:101A3000FF321768BC468444674617600432126858
:101A4000002A08D08A277F00B846984447463F6856
:101A5000874200D855E1491B890061180931FF31DF
:101A600020000978FEF750FC236838E7FFBFFFFF2E
:101A7000FFDFFFFFFFF7FFFFFFFEFFFF00BDFFFFE0
:101A8000FFEFFFFFFFFBFFFFFFFDFFFF14FEFFFF68
:101A90000F8FFFFF020400008F0F000006040000FC
:101AA0008FBFFFFF8080FFFF1A88D84920000A40BF
:101AB0001A805022995A283AA25CD2009B18D44A24
:101AC0005B189446A26B634494461B8800219B05D7
:101AD0009B0D23646344A363FEF724FC2421635C11
:101AE000002B0DD0E06B00280AD18026655C2368AE
:101AF0003543343E9D531A006054D6E6FFF7F8FC98
:101B00002368D1E63200283212789000185A400635
:101B100047D45020185AD2001218BE489A1884464A
:101B2000624412889205920D326400D0EBE1B84A0B
:101B300098184A1B9200A21828321278B64F9200C9
:101B40009E5A3740B54E3E439E52EAE61000093099
:101B5000FF3000788700B846DF5B7F0478D45027D9
:101B6000DF5BC000BC46AB4F6044BC461818604405
:101B700000888446800582465746800D83460020B3
:101B8000002F00D006E24246A34F9A5A1740A44ABB
:101B90003A434746DA533DE72000FEF7E9FB226867
:101BA0001BE65020185AD2008446994862441818FF
:101BB000125A9205920D3264BBD0B76BF68DBB46BC
:101BC000B4468026F6009E19B4445E46F643664449
:101BD000B04602264645B641013257087642029683
:101BE00001975E4667463743032637407E427E4173
:101BF000029F3E4200D123E257087E1E0B2E00D8E2
:101C00001EE2920890469200029262449246664614
:101C10005A4603911900921B130052468A46009FB0
:101C2000F15802C69642FBD14246029E52009046AF
:101C300032000097019F534603995A446644474532
:101C400000D176E71778527812023A43328070E773
:101C50005027DF5BC000BC466D4F6044BC4618187F
:101C6000604400888446800582465746800D83463E
:101C70000020002F87D0100080271930FF30006827
:101C8000FF00BA46804658460F32FF32128840089D
:101C900052449B181F001A0001900293002814D090
:101CA00042460300B81A8A460100009F885A013B49
:101CB0001070000A50700232002BF7D15146019B80
:101CC000029A5B000097D21898446346DB0702D55E
:101CD0001388424613704B1B9B00E3180933FF33F4
:101CE0001B7858469B00984623684CE74509ADB2DF
:101CF000C00601D1013DADB24A48AD0205430D8099
:101D000058E60933FF331978200013006246FFF7C5
:101D100049FB2368E3E5B76BB68DBB46B446802626
:101D2000F6009E19B4445E46F6436644B046022669
:101D30004645B641013257087642029601975E4603
:101D400067463743032637407E427E41029F3E422C
:101D500000D144E157087E1E0B2E00D83FE19208C7
:101D60009046920002926244924666465A46039119
:101D70001900921B130052468A46009FF15802C672
:101D8000B242FBD14246029E52009046320000977A
:101D9000019F534603995A446644474500D1C0E524
:101DA0001778527812023A433280BAE51000802741
:101DB0001930FF300068FF00BC46834650460D32A4
:101DC000FF321288400862449B181A000190029367
:101DD000002813D05B46D21A8C461100009FCA5AC5
:101DE00001381A70120A5A7002330028F7D161467E
:101DF000019B029A5B000097D2189B444346DB0785
:101E000002D513885A461370504603E60F8FFFFF22
:101E100002040000060400000F0F000080C0FFFF56
:101E2000C080FFFF0080FFFF29695208884680219B
:101E3000C9008A469446AA8852449A469244624609
:101E40005346002A11D042466046009F9B1A995A79
:101E500001381170090A517002320028F7D1634627
:101E60005A00534600979B189044F20702D5424609
:101E70001B881370AA692B69944663442B6182E521
:101E800050227D49985A8C462100B832A25C093113
:101E9000D20012189A1862441688FF31B205920DCA
:101EA0008A61520894468A888021C90088462500A4
:101EB00042449B186246ED351900FF35002A10D0C8
:101EC0002A006046009F9918C95B01381170090A01
:101ED000517002320028F6D16246520000979918DC
:101EE000AD18F30701D50B882B702268634913885E
:101EF00020000B401380FEF7FDF923681A00D4E49C
:101F00002268FFF741FCB06B368E0132B446802662
:101F1000F6009E19B4445708C643019767466644C5
:101F2000B04607430226BA4603274645B641B8469F
:101F30007642B3465746464637407E427E415F462C
:101F40003E4267D057087E1E0B2E63D96646920824
:101F50009046920092469346821B02911100E24401
:101F600052469A460B00009FF15802C69642FBD19A
:101F70004246019E53460299009752005844DC4461
:101F8000964200D1D3E50678427860461202324389
:101F90000280CCE5100080271930FF300068FF0078
:101FA000BA46804658461132FF32128840085244E1
:101FB0009B181F001A0001900293002800D184E6AC
:101FC00042460300B81A8A460100009F885A013B26
:101FD0001070000A50700232002BF7D16EE6019AA1
:101FE000664652005A4490465A468C461900B61A24
:101FF0004346824688463100009F56781078360264
:102000000643565202329A42F7D150466146434641
:10201000009786E4019A9846560062468619121A7D
:102020008C4633001100009F42780678120232433A
:10203000425202309842F7D161464346009776E516
:10204000019A664652005A4490465A468C461900F8
:10205000B61A4346824688463100009F567810786B
:1020600036020643565202329A42F7D15046614632
:10207000434600975DE5C046060400008F0F000050
:10208000F42310B55B00C25C012A4BD00122C2547C
:102090004BB2002B2CDBCB005B1A9B00C3181C003F
:1020A0000B34FF3422701A000932FF321170002203
:1020B0000A33FF331A7000290ED101681A4B0A88BF
:1020C0001A401A4B5A401A4B13430B80F423002238
:1020D0005B00C254002010BD04688900625A154B91
:1020E0001A4080235B015A40114B13436352EDE7C2
:1020F0007F231940CB005B1A9B00C3181C002A34B5
:1021000022702933023C21701A700029D5D004684E
:102110008900635A084A134010225340044A13436B
:102120006352D3E70220D6E7BFBFFFFF10100000C5
:102130008080FFFF8FBFFFFFBF8FFFFF4BB210B547
:10214000002B2ADBCB005B1A9B00C3181C0000226B
:102150000B34FF340A332270FF33023C21701A70B3
:10216000F4235B00C35C012B3DD0036889005C183D
:102170005B5A5A0403D51D4A13401D4A13431D4A96
:102180001340C02292015A401B4B13432380F42377
:1021900000225B00C254002010BD7F231940CB00F9
:1021A0005B1A9B00C3181A0000242A321470023AEA
:1021B0001170012229331A70F4235B00C35C012BD8
:1021C00011D0036889005C185B5A5A0603D5074A88
:1021D00013400A4A13430A4A134030225340064A26
:1021E00013432380D3E70220D6E7C0460F0F000039
:1021F00080C000008FBFFFFF8080FFFFC080000015
:10220000BF8FFFFF10B50C060DD57F242140CC00F9
:10221000611A890028314018002A0CD183800023DC
:102220008372002010BDCC00611A89000931FF3192
:102230004018002AF2D0C3801B0C03810123EFE772
:10224000F0B5CE46474680B50368040083B0DA0790
:102250002FD50C21C24842680A40042A00D11DE152
:1022600042681140082900D10FE16368012B00D1B9
:102270004EE1002B00D164E1052B00D158E2B84BB0
:10228000B8491A680A401A601A68B7490A401A60C1
:10229000FEF7B6FC80260500B14FB60205E0FEF75A
:1022A000AFFC401B642800D949E13B683342F6D0BB
:1022B00023689A0729D50C22A9494868024200D10F
:1022C00000E148680240082A00D1F2E0E368A44D2A
:1022D000002B00D174E101222B68022713432B60ED
:1022E000FEF78EFC060005E0FEF78AFC801B022844
:1022F00000D924E12B681F42F6D0F8212A6823690F
:102300008A43DB0013432B6023681A0717D5E36960
:10231000934D002B00D1E8E001226B6A02271343A2
:102320006B62FEF76DFC060005E0FEF769FC801BA2
:10233000022800D903E16B6A1F42F6D023685A07CE
:1023400045D580220020864B5205D969814611422D
:1023500008D1D9691143D961DB691A400192019B07
:10236000012399468027814E7F0033683B4200D18C
:10237000D5E0A368012B0FD0002B00D106E1052B7F
:1023800000D175E10121764B1A6A8A431A621A6AF2
:1023900003318A431A6203E071490A6A13430B62EC
:1023A000FEF72EFC6E4B060098460227704D05E0A6
:1023B000FEF726FC801BA84200D9C0E043461B6AFA
:1023C0001F42F5D04B46012B00D14AE12368DA06C3
:1023D00012D56269012A00D154E1053200D002E130
:1023E0000420F8255E494A6B82434A63486BA26920
:1023F000A843D20002434A639B0622D50C225849C7
:102400004B6813400C2B00D10CE14B681A40082A92
:1024100000D100E1236A524D002B00D10DE180274D
:102420006B6B7F023B436B63FEF7EAFB060005E044
:10243000FEF7E6FB801B022800D980E06B6B3B4275
:10244000F6D0636A002B1AD00C22454D69680A4009
:10245000082A2CD0022B00D133E12B68454A802674
:1024600013402B60FEF7CCFBB604040004E0FEF73B
:10247000C7FB001B022862D82B683342F7D100202B
:1024800003B0C0BCB946B046F0BDC02142684902A5
:102490000A40802149028A4200D0E6E6304A1268AA
:1024A000920300D405E76268002A00D001E701200A
:1024B000E6E74A68C02149020A40802109028A42AF
:1024C00000D003E7264A1268920702D5E268012A83
:1024D000EDD1F825224822690168D200A9430A43B8
:1024E00002601A0700D42AE711E701226B6A02276B
:1024F00093436B62FEF784FB060004E0FEF780FB6B
:10250000801B02281BD86B6A1F42F7D1236816E78D
:102510008023134A5B0211680B431360B8E63368EB
:102520003B433360FEF76CFB050004E0FEF768FBFD
:10253000401B642803D833683B42F7D019E70320D7
:102540009EE7074D074A2B68802713402B602B68B6
:10255000054ABF0213402B60FEF752FB060010E055
:1025600000100240FFFFFEFFFFFFFBFF0070004076
:1025700088130000FFFFFFFEFEF742FB801B64286C
:10258000DDD82B683B42F7D1236892E601226E4EDC
:102590006E4D336A93433362336A0332934333623B
:1025A000FEF72EFB02230700984604E0FEF728FB07
:1025B000C01BA842C3D84246336A1A42F6D101E78B
:1025C00001222B68022793432B60FEF719FB0600BC
:1025D00004E0FEF715FB801B0228B0D82B681F42D1
:1025E000F7D1236891E60422574D02276B6B134302
:1025F0006B636B6B033A93436B63FEF701FB06005F
:1026000004E0FEF7FDFA801B022898D86B6B1F428E
:10261000F7D12368F0E6C0224B6852021340934280
:1026200000D0F7E6484B5B6BDB0300D409E7236A75
:10263000012B00D105E7012022E76B6B444A80277C
:1026400013406B63FEF7DCFA7F02060005E0FEF73D
:10265000D7FA801B022800D971E76B6B3B42F6D199
:10266000EFE6394A3B49D3690B40D3612368AEE6B4
:102670000421354B1A6A0A431A621A6A03390A435B
:102680001A628DE60421304D02276B6B0B436B639E
:102690006B6B1A436A63FEF7B3FA060005E0FEF7B8
:1026A000AFFA801B022800D949E76B6B1F42F6D0B6
:1026B000F8216A6BA3698A43DB0013436B632368C9
:1026C0009AE62B68244A802713402B60FEF798FA7D
:1026D000BF04060005E0FEF793FA801B022800D92C
:1026E0002DE72B683B42F6D10F22EB6A164E93433F
:1026F000226B1343EB62A16AE36A6A680B431749D2
:102700000A4013436B6080232A685B0413432B60E9
:10271000FEF776FA80250400AD0405E0FEF770FAB6
:10272000001B022800D90AE733682B42F6D0A6E640
:102730008022054BD20219680A431A608022196868
:1027400052020A431A60A3E50010024088130000F9
:10275000FFFFFEFFFFFFFFEFFFFFFFFEFF7FC2FF58
:1027600070B588B069460A001B4B31CB31C21B687B
:10277000136004AA1000194B70CB70C01B68184D71
:1027800003600C206B68184008280AD00C38431EE0
:102790009841144B40421840134B9C46604408B08B
:1027A00070BD0F209C0C04400C5DE96A0840115C70
:1027B000C0228020520213404002834201D0934243
:1027C00004D00A48FDF7A0FC6043E8E70648FDF79F
:1027D0009BFC6043E3E7C046103C0008243C000833
:1027E0000010024000A69DFD006CDC0200127A0081
:1027F000F8B5CE46474601230C005A4905000A6841
:1028000080B51A40A24209D20A689A4322430A605C
:102810000A681340A34201D0012054E02B689A07B4
:1028200006D5F02050494A688243A86802434A60AE
:10283000DB0729D56A684C4B012A55D0022A4ED0B5
:10284000032A00D177E01B689B07E5D50321464E9C
:1028500073688B4313437360FEF7D2F96B6807000C
:10286000012B48D0022B56D0032B6AD00C2398465C
:102870003E4B994604E0FEF7C3F9C01B484538D8E3
:10288000424673681A42F6D10121364A13680B405A
:10289000A3421CD82B685B0706D5334A34495368DA
:1028A0000B40E9680B435360FFF75AFF2E4B314A48
:1028B0005B681B061B0FD35CD8402F4B18600020B1
:1028C000FEF774F90020C0BCB946B046F8BD1368E5
:1028D0008B43136013681942DCD00120F3E71B68B7
:1028E0009B01B3D40120EEE71B689B03AED401200B
:1028F000E9E70320E7E70B3398461C4B994604E0D1
:10290000FEF77EF9C01B4845F3D842467368134072
:10291000042BF5D1B8E70A339846144B994604E0E6
:10292000FEF76EF9C01B4845E3D842467368134072
:10293000082BF5D1A8E75B6BDB0300D586E7012008
:10294000C1E709339846094B994604E0FEF758F968
:10295000C01B4845CDD84246736813400C2BF5D1B7
:1029600092E7C04600200240001002408813000099
:10297000FFF8FFFF383C0008B8000020014B186842
:102980007047C046B8000020F0B5CE46474680B537
:102990000368040083B0DA0331D580224C4B520522
:1029A000D9690027114254D080264A4D76002B6801
:1029B00033425CD0464DC0222B6A92001800104072
:1029C000134200D175E061680A4082420ED0802235
:1029D000286A2E6A520232432A622A6A3E4B3F4ECE
:1029E000034032402A622B62C30751D4384A3A4826
:1029F000136A03400B431362012F63D02368DA0785
:102A000006D5032032490A6B8243A06802430A6359
:102A10009A0606D510202E490A6B8243E0680243CD
:102A20000A639A0306D5802029490A6B82436069AC
:102A300002430A6300205B0506D54021244A136B3C
:102A40008B4321690B43136303B0C0BCB946B04646
:102A5000F0BD8026D9691F4D1143D961DB6976002D
:102A60001A400192019B2B6801373342A2D12B6897
:102A700033432B60FEF7C4F880462B68334299D16C
:102A8000FEF7BEF84346C01A6428F6D90320DBE7F8
:102A9000FEF7B6F802239846114B0600994604E06B
:102AA000FEF7AEF8801B4845F0D842462B6A1A4222
:102AB000F6D0074A0848136A616803400B43136263
:102AC000012F9BD1D36907490B40D361236896E757
:102AD0000010024000700040FFFCFFFFFFFFFEFF00
:102AE00088130000FFFFFFEF8022114B12051969C8
:102AF00010B50A431A611A690E490A401A61426800
:102B000003680D49134382681343C2681343026983
:102B100012041343094A53601468436921401B029D
:102B20000B436021136013680B43136010BDC04654
:102B300000100240FFFFFFF7FFC0FFFF006C0040E6
:102B400010B5041E54D03D23C35CDAB2002B2FD045
:102B50003D230222E254236826491A688B4233D06F
:102B60008021C9058B421AD023498B4217D02349B3
:102B70008B4218D022498B422AD022498B4227D03F
:102B800080218A43A1690A431A60E268DA626268B6
:102B90009A6201225A613D230020E25410BD702147
:102BA0008A43A1680A4318490A4021690A43E7E7B2
:102BB0003C33C254FDF752FE3D230222E254236807
:102BC0000C491A688B42CBD170218A43A1680A4311
:102BD0000D490A4021690A4380218A43A1690A43B9
:102BE0001A60E268DA6262689A6262691A63D0E720
:102BF0000120D3E7002C01400004004000200040E9
:102C00000044014000480140FFFCFFFF0368012031
:102C1000D9680143D9601A6802431A6000207047DE
:102C200010B5041E54D03D23C35CDAB2002B2FD064
:102C30003D230222E254236826491A688B4233D08E
:102C40008021C9058B421AD023498B4217D02349D2
:102C50008B4218D022498B422AD022498B4227D05E
:102C600080218A43A1690A431A60E268DA626268D5
:102C70009A6201225A613D230020E25410BD702166
:102C80008A43A1680A4318490A4021690A43E7E7D1
:102C90003C33C254FDF7CEFD3D230222E2542368AB
:102CA0000C491A688B42CBD170218A43A1680A4330
:102CB0000D490A4021690A4380218A43A1690A43D8
:102CC0001A60E268DA6262689A6262691A63D0E73F
:102CD0000120D3E7002C0140000400400020004008
:102CE0000044014000480140FFFCFFFF01228A40F0
:102CF0000368196A91431962196A0A431A620A4AF7
:102D0000934205D0094A934202D0094A934204D122
:102D10008022596C12020A435A6401211A68002069
:102D20000A431A607047C046002C0140004401402D
:102D3000004801403C23F0B5C45C012C00D1DFE029
:102D400001250224C5540133C454082A00D1ABE044
:102D50003AD8002A00D17EE0042A2DD1102403683D
:102D6000764D1A6A764FA2431A621A6A5E689C69A7
:102D70002C400D682D0225432024A2438C68240199
:102D80001443BB4257D06F4FBB425CD06E4FBB4227
:102D900059D04A685E609D619A6380221C629C697A
:102DA000120122439A619A69684C22409A610A6929
:102DB0009C69120222439A613D230122C2540022DF
:102DC000013BC2540020F0BD0C2AF5D10368604CD1
:102DD0001A6A5A4D22401A621A6A5E68DC692C40EF
:102DE0000D682D0225435B4C14408A681203224370
:102DF000534CA34219D0534CA34216D0524CA34279
:102E000013D04C685E60DD611C641A628022DC694C
:102E100012012243DA61DA694C4C2240DA610A6914
:102E2000DC6912022243DA61C6E74B4C34404E693A
:102E3000B6012643E5E7802294432200CC682401B2
:102E4000144340229443454A4F6932408E693E43C1
:102E5000B60016439DE7732703681A6AAA431A62ED
:102E60001A6A5E689D69A243BD430F688C683D4342
:102E7000334F2243BB4245D0324CA34242D0324C66
:102E8000A3423FD04C685E609D615C6308241A6277
:102E90009A69096922439A619A69043CA2439A613A
:102EA0009A690A439A6187E7732603682C4C1A6A69
:102EB0000F6822401A621A6A5D68DC69B4432743CE
:102EC000284C1F4E22408C6824021443B34226D063
:102ED0001C4EB3422AD01C4A934227D04A685D60F8
:102EE000DF61DA631C620824DA6909692243DA6166
:102EF000DA69043CA243DA61DA690A43DA615BE722
:102F0000022060E70824A243CC688F69224304248E
:102F1000A243154C34404E693E432643B2E7134A60
:102F20002240CC6824021443084A1440104A4E69D7
:102F30002A408D6935432D011543CFE7FF8CFFFFF4
:102F4000002C01400044014000480140FFFBFFFF0E
:102F5000FFEFFFFFFFDFFFFFFFBFFFFFFFF3FFFFFD
:102F6000FFFEFFFFFFFDFFFFFFFCFFFFFFF7FFFF7F
:102F7000FFCFFFFF7047C0467047C0467047C0464E
:102F80007047C0460222036810B5196904000A425E
:102F900002D0D9680A4265D1042219690A4202D0D6
:102FA000D9680A424BD1082219690A4202D0D9686D
:102FB0000A4233D1102219690A4202D0D9680A4262
:102FC0001CD1012219690A4202D0D9680A425CD197
:102FD000802219690A4202D0D9680A425CD1402293
:102FE00019690A4202D0D9680A425DD120221969C2
:102FF0000A4202D0D9680A4241D110BD213A1A6171
:1030000019322277DA69C0239B0020001A425ED071
:10301000FFF7B2FF002323772368D2E7113A1A6142
:103020000D322277DB6920009B074DD1FFF7A2FF0D
:103030002000FFF7A3FF002323772368BAE7093AAC
:103040001A61073222779A69C0239B0020001A4236
:1030500037D1FFF78FFF2000FFF790FF0023237782
:103060002368A0E7053A1A61043202779B699B073F
:1030700021D0FFF781FF0023237723688CE7413AB3
:1030800020001A6100F04CF8B7E7033A1A612000FB
:10309000FDF72CFC23689BE7023AFF3A1A612000F7
:1030A00000F040F823689AE7813A1A612000FFF7A0
:1030B00067FF23689AE7FFF75DFF2000FFF75EFFD9
:1030C000D9E7FFF759FFC9E7FFF756FFB3E7FFF767
:1030D00051FF2000FFF752FF9CE7C04670B53C242B
:1030E000035D012B19D03D2502237026435503684B
:1030F0005A68B2435A605A680E684968324380265B
:103100005A609A68B2439A609A680A439A600123A7
:10311000435500230355002070BD0220FCE7C04644
:103120007047C0467047C0460121114B11481A68CC
:103130000A431A605A6802405A601A680E480240F0
:103140001A601A680D4802401A605A680C4802401A
:103150000F205A60DA6A8243DA621A6B0948024029
:103160001A635A6B8A435A6300229A607047C046BA
:10317000001002400CB8FF08FFFFF6FEFFFFFBFF48
:10318000FFFFC0FF2CFEFFFF29230380004870478C
:10319000F4000020862300229B00C35800201A75EB
:1031A0007047C0468622920010B5845803002269F9
:1031B000012A08D1872292009B586178DB68207829
:1031C000984700232361002010BDC0460A230380D6
:1031D000004870472C010020862370B504009B0036
:1031E000C5580433E35869782878DB6898472A0083
:1031F000032301212000FDF7A9F9002070BDC0467E
:103200006022862370B514009B00C5580B781C40C3
:103210001A420BD0202C06D14B780B2B16D82A4AF9
:103220009B00D3589F460024200070BD4B780A2B8A
:1032300031D00B2B2CD0062BF6D14B881B0A222B1E
:1032400037D0212B2DD00021002227E000F002FCF6
:103250000224E9E78B7800246B60E5E74B880024C3
:103260001B0AAB60E0E701232B618A79290000F09B
:103270003BFC0024D8E70122291D00F01FFC00249C
:10328000D2E729000122083100F018FC0024CBE726
:103290008B78EB60C8E7290001220C3100F00EFCAE
:1032A000C2E7CB881A1C092B00D90922074992B220
:1032B000F4E7CB881A1C322B00D9322287239B00DB
:1032C000C35892B21968E9E7483C00082001002081
:1032D00070B5040086258121FDF7D0F8AD000121ED
:1032E0002000FDF7CBF86359002B09D087239B0002
:1032F000E3589B6898476059FDF73CF900236351F8
:10330000002070BD70B50400022303228121FDF767
:10331000A3F80223032201212000FDF79DF81820C5
:10332000FDF724F986239B00051EE0500ED00023F4
:10333000037587239B00E3585B68984703232A00A3
:1033400001212000FDF702F9002070BD0120FCE7FB
:10335000FE2310B55B00C35C032B01D0002010BD21
:1033600086239B00C3581C7D002CF7D101341C75AB
:1033700013000A008121FDF7D9F8EFE7002904D0F6
:1033800087239B00C150002070470220FCE7C04605
:1033900010B5002814D085239B00C458002C01D000
:1033A0000024C450002902D084239B00C150FE2376
:1033B00001215B00C1540270FDF702F8002010BD2E
:1033C0000220FCE7002904D085239B00C150002087
:1033D00070470220FCE7C04610B5FDF72DF800202D
:1033E00010BDC04685239B00C35810B5002B04D0E8
:1033F0001B689847002800D110BD0220FCE7C0469A
:10340000852310B59B00C3585B689847002010BD0A
:1034100082239B0070B5C5180400280000F006FB4D
:10342000FA2301225B00E250124BE25A163BE250B3
:103430001033E15CEA3BFF3B0B40012B0AD0022B2F
:1034400012D0002B0BD07F2320009943FDF726F8E4
:10345000002070BD2900200000F054FAF8E7290090
:10346000200000F0EFF8F3E72900200000F06CFAEC
:10347000EEE7C0460E02000010B51300040000295C
:1034800006D1FA2252008258032A0ED0002010BD25
:1034900085239B00C3589B69002BF7D0FE22520066
:1034A000825C032AF2D19847F0E70530FF3081684B
:1034B000C268914210D885239B00E3581B69002BFA
:1034C00006D0FE225200A25C032A01D120009847B8
:1034D000200000F021FBD9E7891A81608A4205D8D3
:1034E0001900200092B200F00FFBCFE70A00F7E7C7
:1034F000F8B50400130000290BD1FA2252008258BB
:10350000022A16D080239B00E25C012A0ED0002004
:10351000F8BD85239B00C3585B69002BF7D0FE22C2
:103520005200825C032AF2D19847F0E70022E2546D
:10353000EDE7C269056AAA4228D8876929003800E0
:10354000FCF768FE0E1E0DD1BD420BD8FC256D00A8
:1035500063599F4206D200220021200000F0BCFAED
:10356000665119E085239B00E358DB68002B04D0EB
:10357000FE225200A25C032A15D0200000F0D8FAE7
:1035800080239B00E25C012AC1D1CFE7521BC261BC
:10359000190092B200F0A0FA0023002200212000BE
:1035A000FCF7D4FFAEE720009847E6E770B540236C
:1035B000002200210400FCF74FFF882340255B0018
:1035C0000022E5508021D03B2000FCF745FFFE2380
:1035D00001225B002562E2541C33E358002B06D025
:1035E00085239B00E358200021795B6898470020E1
:1035F00070BDC046017400207047C046FE23FE2205
:103600005B00C15CFF328154FA3AFF3AC254002099
:103610007047C046FE23FF33C25C013BC25400200A
:103620007047C046FE2310B55B00C35C032B01D07E
:10363000002010BD85239B00C358DB69002BF7D009
:103640009847F5E770B54B7804000D0082B0092B60
:103650000AD8A84A9B00D3589F468B88002B03D1D9
:10366000CB88002B00D176E080212000FCF716FFEC
:1036700000212000FCF712FF002002B070BD8B7803
:103680009D4D2B70012BEFD8FE214900425C022A90
:1036900079D0032AE8D1002B00D120E1416801292B
:1036A0003CD0C9B2FFF7ACFE297820006160FFF77B
:1036B00099FE022832D1D7E7FE235B00C35C023BB0
:1036C000012BD1D80123C36081239B00C358002B59
:1036D00001D00323C3602100022220000C3100F03E
:1036E000EDF9C9E7FE235B00C35C023B012BBBD8AD
:1036F0004B88012BC0D1812300229B00C250103384
:1037000007E04B88012BB7D181229200835085239B
:103710009B00E358290020009B689847200000F098
:10372000FBF9A9E74A88130A072B9DD873499B0028
:10373000CB589F46CB88012B00D095E7FC33FF3355
:10374000C35C022B2BD0032B00D08DE70122011D7F
:1037500000F0B4F990E7FE267600835D032B00D1DC
:1037600082E77F254B881D40FF235B002900C5545D
:10377000FCF7CCFE200000F0CFF9002D00D1A0E036
:103780000223A35578E7002BC8D0012343600233FE
:1037900043540121FFF726FE0228BFD164E700232E
:1037A000010001228360083100F088F964E76B466C
:1037B0009E1D84239B00E3583100007C1B689847C2
:1037C0003388002B00D157E7EA88002A00D153E75D
:1037D000191C934200D9111C8AB2318001002000CB
:1037E00000F06CF948E7037C002B00D03CE76B4607
:1037F0009E1D85239B00C35830001B6B98470723F1
:103800004370DDE7037C002B00D02DE76B469E1D47
:1038100085239B00C35830005B6B9847D0E7D2B23A
:10382000052A00D920E7364B92009B589F46037C1F
:10383000002B49D16B469E1D85239B00C358300049
:103840009B6A984702234370BAE76B469E1D842308
:103850009B00E35831005B69007C9847B0E76B46FA
:103860009E1D84239B00E35831005B68007C9847D1
:10387000A6E76B469E1D84239B00E35831009B699D
:10388000007C98479CE76B469E1D84239B00E35871
:103890003100DB68007C984792E76B469E1D8423CD
:1038A0009B00E35831009B68007C984788E76B4693
:1038B0009E1D84239B00E35831001B69007C9847C0
:1038C0007EE70123A355D7E66B469E1D85239B000B
:1038D000C3583000DB6A98470223437070E7022226
:1038E000425400214360FFF78BFD200000F014F9E3
:1038F000C2E6C046783C00083C080020A03C000816
:10390000C03C0008FE2370B55B00C35C04000D00E2
:10391000032B0ED10B79012B0BD885239B00C358A9
:103920009B689847EB88002B0BD1200000F0F4F83F
:1039300007E080212000FCF7B1FD00212000FCF70A
:10394000ADFD002070BDC04670B50C00602322782C
:103950000500134088880979202B08D06378012B53
:1039600028D0032B40D0002B09D0002070BDF533A8
:10397000FF33EB58210028009B689847F5E7FE23AA
:103980005B00EB5C022B48D0032B3DD17F240C4025
:103990002401030647D40534FF342C192800FCF712
:1039A0009DFD431E9841022220602100280000F066
:1039B00085F8DAE7FE235B00EB5C022B2DD0032BAE
:1039C00022D16388002BD0D14B0609D02800FCF708
:1039D00075FD85239B00EB58210028009B689847C4
:1039E000280000F099F8C0E7FE235B00EB5C022B97
:1039F00013D0032B08D16388002BEAD14B06E8D003
:103A00002800FCF74BFDE4E780212800FCF746FD89
:103A100000212800FCF742FDA7E74B06A5D02800AF
:103A2000FCF73CFDA1E714342C19B7E70B780370C1
:103A30004B784370CA788B7812029B1843804A797E
:103A40000B7912029B188380CA798B7912029B181A
:103A5000C380704710B504008021FCF71FFD0021D2
:103A60002000FCF71BFD10BD70B5002821D00378A5
:103A7000002B1FD001260300361A9C195D780133F4
:103A8000E4B2002DF9D101346400E3B214800B706C
:103A900003234B700478002C0BD00025013B5A1CEB
:103AA000D2B2CC5401308D5404780233DBB2002CF6
:103AB000F5D170BD02230224E8E7C0461300FA22C4
:103AC00010B50224520084500A0083610021C361B2
:103AD000FCF72CFD002010BD10B513000A000021DA
:103AE000FCF724FD002010BD1300FA2210B50324BA
:103AF00052008450EC3A8350043283500A00002173
:103B0000FCF724FD002010BD10B513000A000021B1
:103B1000FCF71CFD002010BDFA23042210B55B0049
:103B2000C250002100230022FCF700FD002010BD40
:103B3000FA23052210B55B00C250002100230022A9
:103B4000FCF704FD002010BD70B500260C4D0D4C97
:103B5000641BA410A64209D1002600F0BDF80A4D4E
:103B60000A4C641BA410A64205D170BDB300EB58EB
:103B700098470136EEE7B300EB5898470136F2E775
:103B8000F03C0008F03C0008F03C0008F43C000861
:103B9000002310B59A4200D110BDCC5CC45401334F
:103BA000F8E703008218934200D17047197001337F
:103BB000F9E700000002010256697275616C205439
:103BC0006563686E6F6C6F676965730041726361EE
:103BD0006465204A6F79737469636B20446F6E6704
:103BE0006C650000437573746F6D20484944204331
:103BF0006F6E666967000000417263616465204A08
:103C00006F79737469636B204164617074657200CD
:103C100002030405060708090A0B0C0D0E0F10100D
:103C2000000000000102030405060708090A0B0C46
:103C30000D0E0F100000000000000000000000004A
:103C400001020304060708094C3200084C32000840
:103C500082320008763200084C3200084C320008EC
:103C60004C3200084C3200084C3200086632000822
:103C70005C32000854320008B8360008E436000808
:103C80006836000802370008683600085A3600080F
:103C90002437000868360008343700087E360008EC
:103CA00068360008AE3700082E3800081E380008B5
:103CB000683600086836000804380008E63700084F
:103CC0005E3800089A38000886380008AE380008C8
:103CD0004A38000872380008F8B5C046F8BC08BC7D
:103CE0009E467047F8B5C046F8BC08BC9E46704773
:043CF000E9000008DF
:043CF400C100000803
:103CF80009022200010100C032090400000103008A
:103D08000000092111010001223200070581030288
:103D1800000A0000790500088505000891050008DB
:103D2800AD05000801060008C9050008E5050008FA
:103D380012010002000000408304505700020102F3
:103D480003010000040309041A0300000000000036
:103D5800000000000000000000000000000000005B
:103D68000000000005010904A1010901A1000509DD
:103D78001901290215002501950275018102950195
:103D8800750681030501093009311581257F7508FC
:103D980095028102C0C0000074000020A10700083D
:103DA800A9070008A507000800127A0005330008D3
:103DB800D13200080132000800000000A5310008D7
:103DC80095310008D931000800000000000000000B
:103DD8000000000089310008893100088931000895
:103DE800CD31000809022900010100C03209040090
:103DF800000203000000092111010001223200071E
:103E080005810302002007050103020020000000CD
:103E18000921110100012232000000000A060002F7
:083E2800000000400100000051
:0400000508000B697B
:00000001FF
